:100000000C94C7010C94E4010C94E4010C94E401F9
:100010000C94E4010C94E4010C94E4010C94E401CC
:100020000C94E4010C94E4010C94E4010C94E401BC
:100030000C94E4010C94E4010C94E4010C94E401AC
:100040000C94E4010C94E4010C94E4010C94E4019C
:100050000C94E4010C94E4010C94E4010C94E4018C
:100060000C94E4010C94E4010C94E4010C94E4017C
:100070000C94E4010C94E4010C94E4010C94E4016C
:100080000C94E4010C94E4010C94E4010C94E4015C
:100090000C94E4010C94E4010C94E4010C94E4014C
:1000A0000C94E4010C94E4010C94E4016E616E0084
:1000B000696E6600000000000000005F000000079D
:1000C000000700147F147F14242A7F2A12231308A8
:1000D000646236495522500005030000001C22418D
:1000E000000041221C0014083E081408083E0808BD
:1000F0000050300000080808080800606000002078
:10010000100804023E5149453E00427F40004261D2
:100110005149462141454B311814127F102745455E
:1001200045393C4A49493001710905033649494975
:1001300036064949291E00363600000056360000B2
:10014000081422410014141414140041221408024B
:1001500001510906324979413E7E1111117E7F49D4
:100160004949363E414141227F4141221C7F494954
:1001700049417F090909013E4149497A7F08080838
:100180007F00417F41002040413F017F0814224110
:100190007F404040407F020C027F7F0408107F3E7A
:1001A0004141413E7F090909063E4151215E7F09D7
:1001B000192946464949493101017F01013F404023
:1001C000403F1F2040201F3F4038403F6314081429
:1001D0006307087008076151494543007F414100AA
:1001E00002040810200041417F0004020102044083
:1001F00040404040000102040020545454787F489D
:100200004444383844444420384444487F385454A3
:100210005418087E0901020C5252523E7F08040411
:100220007800447D40002040443D007F1028440079
:1002300000417F40007C041804787C08040478386E
:10024000444444387C14141408081414187C7C08A2
:100250000404084854545420043F4440203C404087
:10026000207C1C2040201C3C4030403C442810286E
:10027000440C5050503C4464544C440008364100F7
:1002800000007F00000041360800100808100878C0
:100290004641467800407A10F35A00A0724E180981
:1002A0000010A5D4E80000E87648170000E40B54DD
:1002B000020000CA9A3B000000E1F50500008096AC
:1002C0009800000040420F000000A08601000000DE
:1002D000102700000000E803000000006400000098
:1002E00000000A00000000000100000000002C7661
:1002F000D888DC674F0823DFC1DFAE59E1B1B7967C
:10030000E5E3E453C63AE651997696E8E6C28426D8
:10031000EB898C9B62ED407C6FFCEFBC9C9F40F2B4
:10032000BAA56FA5F490055A2AF75C936B6CF96730
:100330006DC11BFCE0E40D47FEF520E6B500D0EDF5
:10034000902E0300943577050080841E080000205D
:100350004E0A000000C80C333333330F986E1283FB
:100360001141EF8D2114893BE65516CFFEE6DB18CF
:10037000D1844B381BF77C1D901DA4BBE424203294
:1003800084725E228100C9F124ECA1E53D2711248D
:100390001FBECFEFDAE0DEBFCDBF11E0A0E0B1E0DD
:1003A000EAE4F1E302C005900D92A235B107D9F756
:1003B00013E0A2E5B1E001C01D92A13CB107E1F755
:1003C0000E94430C0C94A3180C9400002F923F92AF
:1003D0004F925F926F927F928F929F92AF92BF9255
:1003E000CF92DF92EF92FF920F931F933B014C014C
:1003F00019012A01C801B701A40193010E940A133F
:100400000E94EE136E5F7F4F6530710518F020E09B
:1004100030E013C010E0C601B501A20191010E94B5
:100420000A130E94EE136E5F7F4F6530710508F06E
:1004300011E081E01827212F30E0C9011F910F91B1
:10044000FF90EF90DF90CF90BF90AF909F908F90F4
:100450007F906F905F904F903F902F900895EF9214
:10046000FF920F931F93CF93DF93EC016881798103
:100470008A819B81288539854A855B850E940B137B
:100480007B018C01688379838A839B836C817D8166
:100490008E819F812C853D854E855F850E940B1343
:1004A0006C837D838E839F8328896DE570E0621B5A
:1004B0007109882777FD8095982F0E9421149B0150
:1004C000AC01C801B7010E942415882344F080E0E4
:1004D00090E0A0E0B0E088839983AA83BB83298958
:1004E00069E370E0621B7109882777FD8095982F7A
:1004F0000E9421149B01AC016C817D818E819F81C2
:100500000E942415882344F080E090E0A0E0B0E051
:100510008C839D83AE83BF83688179818A819B812F
:1005200020E030E040E050E00E948213882344F451
:1005300080E090E0A8EAB2E488839983AA83BB8331
:100540006C817D818E819F8120E030E040E050E031
:100550000E948213882344F480E090E0A0E4B2E497
:100560008C839D83AE83BF836C817D818E819F81CF
:1005700020E030E040E751E40E948213181634F185
:10058000688179818A819B8120E030E040E751E4F5
:100590000E9482131816D4F080915A0190915B0149
:1005A0008230910549F480E090E0A6EAB2E48883C5
:1005B0009983AA83BB830AC0019741F480E090E04D
:1005C000ACE3B2E48C839D83AE83BF836C817D8179
:1005D0008E819F8120E030E044E352E40E942415A4
:1005E000882334F1688179818A819B8120E030E021
:1005F00042EA52E40E9424158823D4F080915A01E3
:1006000090915B018330910549F480E090E0A0E295
:10061000B1E48C839D83AE83BF830AC0049741F409
:1006200080E090E0A8E1B2E488839983AA83BB8349
:10063000DF91CF911F910F91FF90EF9008950F934D
:100640001F93CF93DF938C01C0E0D0E0C8018C0FE3
:100650009D1F0E942F02659682E0CD30D807B1F72A
:10066000DF91CF911F910F910895EF92FF920F9319
:100670001F93CF93DF937B018C01C0E0D0E006C0D5
:10068000C8010E942F0221960B5E1F4FCE15DF0579
:10069000BCF3DF91CF911F910F91FF90EF900895E0
:1006A0000895AF92BF92CF92DF92EF92FF920F9395
:1006B0001F9369E874E58FE490E00E94A216809190
:1006C000C5019091C601449758F40E943A16BC01A6
:1006D0008EE190E00E948B159093C6018093C50136
:1006E0008091C7019091C801449758F40E943A162E
:1006F000BC018EE190E00E948B159093C80180931D
:10070000C7016091C5017091C601882777FD80956A
:10071000982F0E9421146B017C016091C701709198
:10072000C801882777FD8095982F0E9421148B019E
:100730009C0180E691E0B701A601A3E0EA2EF3E078
:10074000CF2EE3E4AE2EE1E0BE2E0E9451121F91A7
:100750000F91FF90EF90DF90CF90BF90AF900895F2
:100760002F923F924F925F926F927F928F929F92C1
:10077000AF92BF92CF92EF920F931F93DF93CF93DD
:10078000CDB7DEB728970FB6F894DEBF0FBECDBF4A
:100790007A8369835C834B833E832D834C01188667
:1007A0001F82BEE16B2E712C0F2EF0E02F2EF0E099
:1007B0003F2EF0E44F2EF0EC5F2EF02D39C0B30148
:1007C000882777FD8095982F0E9421148B019C012A
:1007D0008F8198856D817E810E948B15FC01EE0FC3
:1007E000FF1F89819A81E80FF91FA080B180C401A1
:1007F000B901A80100E010E020EF31E4E8E0EE2EBE
:10080000B8E0CB2E0E945112D40118962D923D9241
:100810004D925C921B97EF81F8853196F887EF83B4
:1008200028E030E0620E731E85E190E0880E991E8C
:10083000AF81B885EB81FC81AE17BF070CF4BFCF49
:1008400028960FB6F894DEBF0FBECDBFCF91DF91D3
:100850001F910F91EF90CF90BF90AF909F908F908E
:100860007F906F905F904F903F902F9008950F93DF
:100870001F93CF93DF938C01C0E0D0E0C8018C0FB1
:100880009D1F0E947912659682E0CD30D807B1F79E
:10089000DF91CF911F910F910895EF92FF920F93E7
:1008A0001F93CF93DF937B018C01C0E0D0E006C0A3
:1008B000C8010E94791221960B5E1F4FCE15DF05ED
:1008C000BCF3DF91CF911F910F91FF90EF900895AE
:1008D0002F923F924F925F926F927F928F929F9250
:1008E000AF92BF92CF92DF92EF92FF920F931F933E
:1008F000DF93CF93CDB7DEB7CB56D5400FB6F89484
:10090000DEBF0FBECDBF8FE30E94031297B187B148
:1009100080958078892787B9479A0E94D50F80E013
:1009200060E040E051E00E94AA1180E068E049E008
:1009300051E00E94AA110E94CF1180E197E228ECB9
:1009400030E0F9013197F1F70197D9F70E9451038F
:1009500013E3812E912C8C0E9D1EC40140E050E0CB
:1009600060E272E400E010E020EB31E4B3E0EB2E53
:10097000A3E0CA2EF6E4AF2EF1E0BF2E0E94511282
:10098000C401459640E050E06CE272E400E010E003
:1009900020EB31E40E9451126091C5017091C601B3
:1009A000882777FD8095982F0E9421146B017C0188
:1009B0006091C7017091C801882777FD8095982FB5
:1009C0000E9421148B019C0180E691E0B701A601F1
:1009D000E3E0EE2EB3E0CB2EA3E4AA2EA1E0BA2EE4
:1009E0000E94511282E090E0909353018093520153
:1009F000FE01319685EF9FEF81939193E815F905FC
:100A0000D9F7FE01E05CFD4F80E090E0A0E8BFEB8D
:100A10009E01205A3A4F80839183A283B3838483BB
:100A20009583A683B7837096E217F307A1F78DE944
:100A30009FEF9A83898310925D0110925C01CE59D9
:100A4000DA4F19821882C256D5407D9907C080912D
:100A50005C0190915D01892B09F4C9C021E030E06F
:100A600030935D0120935C018EE160E04EE129E16D
:100A70000E94101080E06AE248E22AE20E94101010
:100A80008CE369E148E729E10E941010ABA8BCA8FB
:100A9000CDA8DEA8C601B50120E030E048EE51E463
:100AA0000E94241588238CF1C601B50120E030E0B6
:100AB00048EF51E40E94821318163CF1EFA8F8ACFD
:100AC00009AD1AADC801B70120E030E040E050E0C8
:100AD0000E9424158823CCF0C801B70120E030E043
:100AE00040ED51E40E94821318167CF080913F0182
:100AF0009091400101979093400180933F0182E0E3
:100B000090E09093530180935201EFA8F8AC09ADA7
:100B10001AADC801B70120E030E048E252E40E947B
:100B2000241588236CF1C801B70120E030E04CE2C5
:100B300052E40E94821318161CF1C601B50120E090
:100B400030E040E85FE30E9424158823CCF0C60122
:100B5000B50120E030E040E252E40E948213181612
:100B60007CF080913F01909140010197909340016A
:100B700080933F01A2E0B0E0B0935301A0935201F3
:100B8000C801B70120E030E040EC51E40E94241598
:100B900088236CF1C801B70120E030E040ED51E45A
:100BA0000E94821318161CF1C601B50120E030E046
:100BB00040E752E40E9424158823CCF0C601B50119
:100BC00020E030E040EF52E40E94821318167CF0DF
:100BD00080913F0190914001019790934001809353
:100BE0003F01E2E0F0E0F0935301E09352017E9B7D
:100BF00004C010925D0110925C0110925901109294
:100C000058016091520170915301CE01C3960E9428
:100C10004D0480E691E00E9479126091520170913A
:100C20005301CE01C3960E9435030E94CF11EBA859
:100C3000FCA80DA91EA9A0906001B0906101C09010
:100C40006201D0906301C801B701A60195010E941D
:100C5000821388230CF092C0C801B70120E030E075
:100C600040E85FE30E940A1320E030E040EA50E4ED
:100C70000E940B13A60195010E94241518160CF072
:100C80007DC0EFA8F8AC09AD1AADA0906401B0909A
:100C90006501C0906601D0906701C801B701A60147
:100CA00095010E94821318160CF468C0C801B701A0
:100CB00020E030E040EA50E40E940B13A6019501C9
:100CC0000E94241588230CF459C00E943A1664E54A
:100CD00070E00E948B159093C6018093C5010E941D
:100CE0003A1660E370E00E948B157C019093C80176
:100CF0008093C7016091C5017091C601882777FD77
:100D00008095982F0E9421145B016C010027F7FC4D
:100D10000095102FC801B7010E9421148B019C017E
:100D200080E691E0B601A501F3E0EF2EE3E0CE2EE0
:100D3000B3E4AB2EB1E0BB2E0E94511221E030E0B3
:100D400030935901209358010E94510380915C0116
:100D500090915D018130910531F480915401909121
:100D60005501029607C0892B49F480915401909156
:100D7000550101969093550180935401E0906001D4
:100D8000F09061010091620110916301ABA8BCA8D1
:100D9000CDA8DEA8C801B701A60195010E94821363
:100DA00018160CF48CC0C801B70120E030E040EA0E
:100DB00050E40E940B13A60195010E94241588237C
:100DC0000CF47DC0E0906401F09065010091660133
:100DD00010916701AFA8B8ACC9ACDAACC801B701D3
:100DE000A60195010E94821318160CF468C0C80170
:100DF000B70120E030E040EA50E40E940B13A60166
:100E000095010E94241588230CF459C00E943A16BB
:100E100064E570E00E948B159093C6018093C50134
:100E20000E943A1660E370E00E948B157C0190935B
:100E3000C8018093C7016091C5017091C6018827E0
:100E400077FD8095982F0E9421145B016C0100278B
:100E5000F7FC0095102FC801B7010E9421148B01E7
:100E60009C0180E691E0B601A501A3E0EA2EF3E043
:100E7000CF2EE3E4AE2EE1E0BE2E0E94511281E0BF
:100E800090E090935901809358010E945103809102
:100E90005C0190915D018130910531F480915401A4
:100EA00090915501029607C0892B49F48091540115
:100EB00090915501019690935501809354011092A1
:100EC000570110925601499B58C080914101909161
:100ED0004201892B81F110924201109241016BA9CC
:100EE0007CA98DA99EA920E030E040E450E40E9456
:100EF0000B136BAB7CAB8DAB9EAB6FA978AD89ADA3
:100F00009AAD20E030E040E450E40E940A136FAB59
:100F100078AF89AF9AAF80E090E0A0E4B0EC239680
:100F20008CAF9DAFAEAFBFAF239768968CAF9DAF30
:100F3000AEAFBFAF689723966CAD7DAD8EAD9FAD64
:100F400023972CEC3CEC4CE250E40E94241518163C
:100F50000CF4EFC0E1E0F0E0F0935701E0935601AC
:100F600080E090E0A0E0B0E08BAF9CAFADAFBEAF53
:100F700080E090E0A0E4B0EC59C01F9B62C080917B
:100F8000410190914201892B81F11092420110920E
:100F900041016BA97CA98DA99EA920E030E040E425
:100FA00050E40E940B136BAB7CAB8DAB9EAB6FA977
:100FB00078AD89AD9AAD20E030E040E450E40E9485
:100FC0000B136FAB78AF89AF9AAF80E090E0A0E4ED
:100FD000B0E423968CAF9DAFAEAFBFAF23976896BA
:100FE0008CAF9DAFAEAFBFAF689723966CAD7DADB4
:100FF0008EAD9FAD23972CEC3CEC4CE250EC0E9464
:10100000821388230CF495C0E3E0F0E0F0935701DD
:10101000E093560180E090E0A0E0B0E08BAF9CAFA1
:10102000ADAFBEAF80E090E0A0E4B0E423968CAF1B
:101030009DAFAEAFBFAF2397F0935B01E0935A0132
:10104000AAC0199B41C08091410190914201892B16
:1010500099F0109242011092410180E090E0A0E4EA
:10106000B0EC8BAF9CAFADAFBEAF64968CAF9DAF15
:10107000AEAFBFAF64978FC06BAD7CAD8DAD9EAD95
:101080002CEC3CEC4CE250E40E94241518160CF4B5
:1010900050C0E4E0F0E0F0935701E093560180E0A7
:1010A00090E0A0E4B0EC8BAF9CAFADAFBEAF80E002
:1010B00090E0A0E0B0E023968CAF9DAFAEAFBFAFA5
:1010C0002397A2E0B0E063C0489B65C080914101D6
:1010D00090914201892B09F1109242011092410135
:1010E00080E090E0A0E4B0E48BAF9CAFADAFBEAFCA
:1010F00064968CAF9DAFAEAFBFAF64976BA97CA970
:101100008DA99EA920E030E040EC50E40E940B1332
:101110006BAB7CAB8DAB9EAB3EC06BAD7CAD8DAD98
:101120009EAD2CEC3CEC4CE250EC0E9482138823E8
:10113000A4F480913F019091400101979093400168
:1011400080933F01A2E0B0E0B0935301A09352011D
:1011500010925701109256011EC0E2E0F0E0F093A9
:101160005701E093560180E090E0A0E4B0E48BAF3B
:101170009CAFADAFBEAF80E090E0A0E0B0E02396C2
:101180008CAF9DAFAEAFBFAF2397A4E0B0E0B093FC
:101190005B01A0935A0180913F019091400197FD1E
:1011A00031C38091560190915701892B09F463C096
:1011B000CE59DA4FE881F981C256D5403196CE59E1
:1011C000DA4FF983E883C256D540F29734F0CE590E
:1011D000DA4F19821882C256D5404BA95CA96DA975
:1011E0007EA9EFA8F8AC09AD1AAD6BAC7CAC8DACA8
:1011F0009EAC2396ACACBDACCEACDFAC2397A0913B
:101200005201B0915301FE01339621E030E00FC04E
:101210008081918197FF08C0CE59DA4F88819981EA
:10122000C256D540918380832F5F3F4F32962A1755
:101230003B0774F3CE59DA4FE881F981C256D540A5
:1012400084E0EE0FFF1F8A95E1F7A0E4B2E0AC0F57
:10125000BD1FEA0FFB1F4083518362837383E482C7
:10126000F582068317836086718682869386A486BC
:10127000B586C686D7868091580190915901892BF1
:1012800009F4AEC1809152019091530189319105C9
:101290000CF0A6C15C010894A11CB11CB0925301D2
:1012A000A09252010197A5E1B0E08A9F80018B9F37
:1012B000100D9A9F100D1124E1E0F0E0EC0FFD1FDE
:1012C0000E0F1F1FD801DA96CD90DD90ED90FC90A7
:1012D000DD97C701B6012CEC3CEC4CE250E40E94D7
:1012E000241518160CF04BC0E5E1F0E0AE9E70013D
:1012F000AF9EF00CBE9EF00C11242BEE3FEFE20EE1
:10130000F31E83E390E08C0F9D1FE80EF91ED801B9
:10131000D2966D917D918D919C91D59720E030E092
:1013200040E450E40E940A13AB01BC01F80106A995
:1013300017A920AD31ADC701B3E0EB2EA3E0CA2E53
:10134000F6E4AF2EF1E0BF2E0E94511280915201BF
:1013500090915301019725E130E0829FF001839F36
:10136000F00D929FF00D112481E090E08C0F9D1FF5
:10137000E80FF91F80E090E0A0E4B0E455C0C70199
:10138000B6012CEC3CEC4CE250EC0E94821388231A
:101390000CF04FC0A5E1B0E0AA9E7001AB9EF00C2E
:1013A000BA9EF00C1124EBEEFFEFEE0EFF1E23E3CE
:1013B00030E02C0F3D1FE20EF31ED801D2966D9146
:1013C0007D918D919C91D59720E030E040E450E4F0
:1013D0000E940B13AB01BC01F80106A917A920ADAF
:1013E00031ADC701E3E0EE2EB3E0CB2EA6E4AA2E8A
:1013F000A1E0BA2E0E9451128091520190915301A6
:10140000019725E130E0829FF001839FF00D929FCC
:10141000F00D112481E090E08C0F9D1FE80FF91F63
:1014200080E090E0A0E4B0EC82AF93AFA4AFB5AFA2
:10143000C0C0025C1F4FD801CD90DD90ED90FC90B4
:101440000E531040C701B6012CEC3CEC4CE250E4CA
:101450000E94241518160CF04FC0E5E1F0E0AE9E96
:101460007001AF9EF00CBE9EF00C11242BEE3FEFEE
:10147000E20EF31E83E390E08C0F9D1FE80EF91E31
:10148000D801D296AD90BD90CD90DC90D597D696F0
:101490006D917D918D919C91D99720E030E040E451
:1014A00050E40E940A138B019C01C701B601A501FB
:1014B000F3E0EF2EE3E0CE2EB6E4AB2EB1E0BB2E90
:1014C0000E9451128091520190915301019725E1A0
:1014D00030E0829FF001839FF00D929FF00D112468
:1014E00081E090E08C0F9D1FE80FF91FFE9680E0D1
:1014F00090E0A0E4B0E459C0C701B6012CEC3CEC8C
:101500004CE250EC0E94821388230CF052C0A5E1FB
:10151000B0E0AA9E7001AB9EF00CBA9EF00C1124B4
:10152000EBEEFFEFEE0EFF1E23E330E02C0F3D1F2E
:10153000E20EF31ED801D296AD90BD90CD90DC9016
:10154000D597D6966D917D918D919C91D99720E0FC
:1015500030E040E450E40E940B138B019C01C70172
:10156000B601A501A3E0EA2EF3E0CF2EE6E4AE2E0D
:10157000E1E0BE2E0E9451128091520190915301E0
:10158000019725E130E0829FF001839FF00D929F4B
:10159000F00D112481E090E08C0F9D1FE80FF91FE2
:1015A000FE9680E090E0A0E4B0EC80839183A2837B
:1015B000B383E0915201F09153013197DF01AA0FFB
:1015C000BB1F21E030E02C0F3D1FA20FB31F31974E
:1015D000EE0FFF1FE20FF31F808191818D939C938B
:1015E0004090520150905301089441085108C201A3
:1015F000880F991FA1E0B0E0AC0FBD1FA80FB91F65
:10160000C05ADA4FB983A883C056D540E5E1F0E06F
:101610004E9E40014F9E900C5E9E900C112423E341
:1016200030E02C0F3D1F8DC0C05ADA4FA881B98120
:10163000C056D5406D907C90161417040CF06FC006
:10164000130114E0220C331C1A95E1F7E0E4F2E0F8
:10165000EC0FFD1F2E0E3F1ED1018D919D910D901F
:10166000BC91A02DC859DA4F88839983AA83BB8384
:10167000C856D540F10184819581A681B781CC59A6
:10168000DA4F88839983AA83BB83C456D540D4019B
:101690006D917D918D919C91139714962D913D9113
:1016A0004D915C911797C859DA4FE880F9800A810B
:1016B0001B81C856D540CC59DA4FA880B980CA8062
:1016C000DB80C456D5400E94E601892B41F1F4012C
:1016D000E082F18202831383A482B582C682D7821C
:1016E000F10180859185A285B385F401808791877A
:1016F000A287B387F10184859585A685B785F40116
:1017000084879587A687B7870894611C711CC05A87
:10171000DA4FA881B981C056D5406D927C92089469
:1017200041085108C05ADA4FE881F981C056D540C6
:101730003297C05ADA4FF983E883C056D5402BEE72
:101740003FEF820E931E141415040CF46DCF0E940B
:10175000D50F00D000D000D0EDB7FEB7319625E709
:1017600031E0ADB7BEB712963C932E93119789E145
:1017700091E09383828380915401909155019583E8
:1017800084830E94C517ADB7BEB716960FB6F894FE
:10179000BEBF0FBEADBF80E060E045E751E00E94F4
:1017A000AA1100D000D000D0EDB7FEB7319625E7E2
:1017B00031E0ADB7BEB712963C932E9311978FE1EF
:1017C00091E09383828380913F01909140019583C2
:1017D00084830E94C517ADB7BEB716960FB6F894AE
:1017E000BEBF0FBEADBF80E06AE045E751E00E949A
:1017F000AA1188EE93E0E8ECF0E03197F1F7019759
:10180000D1F723C90E94D50F80E060E045E251E0A6
:101810000E94AA110E94CF1183E090E090934001B2
:1018200080933F0180ED97E028EC30E0F90131979B
:10183000F1F70197D9F72A9A2B9A7E9BFECF88EE73
:1018400093E028EC30E0F9013197F1F70197D9F7EF
:101850002A98C559DA4F0FB6F894DEBF0FBECDBF38
:10186000CF91DF911F910F91FF90EF90DF90CF907C
:10187000BF90AF909F908F907F906F905F904F90B0
:101880003F902F90089580E060E04FE251E00E9489
:10189000AA110E94CF110E946804FDCFA1E1B0E01F
:1018A000E4E5FCE00C949E153C017F876E876A019D
:1018B000FC0117821682838181FD03C06FEF7FEFE9
:1018C0006FC39E012F5F3F4F398B288BF30123811C
:1018D000EE85FF8523FD859123FF8191FF87EE87AC
:1018E000882309F45AC3853251F4EE85FF8523FD20
:1018F000859123FF8191FF87EE87853229F490E05F
:10190000B3010E949917E2CF982F10E08824992400
:101910001032B0F49B3269F09C3228F4903251F0CE
:10192000933271F40BC09D3239F0903349F4116059
:1019300028C01260146025C0186023C0106121C047
:1019400017FD2AC0892F80538A3078F416FF06C00D
:10195000FAE09F9E902C1124980E13C03AE0839ECB
:10196000802C1124880E10620CC09E3221F416FDCA
:1019700014C3106406C09C3611F4106802C0983677
:1019800059F4EE85FF8523FD959123FF9191FF8703
:10199000EE87992309F0BCCF892F8554833020F43A
:1019A000812F8061905E07C0892F8556833008F0B3
:1019B0009FC1812F8F7E86FD02C076E0972E6FE358
:1019C000F62EF822953619F4F0E4FF2A07C0963671
:1019D00019F420E8F22A02C091109A94F7FE0AC086
:1019E0003BE3391518F45CE3B52E02C0B92CB3946F
:1019F00027E009C047E0491520F4BB2447E0942EB6
:101A0000F7CF292DBB24C60104969D878C87F6014C
:101A10006081718182819381AE014F5F5F4F0B2D99
:101A20000E94AB166C010981202E332400FF04C0F4
:101A300003FD02C01DE209C0F1FE02C01BE205C0A9
:101A4000F2FC02C010E001C010E2C1018C70907085
:101A5000892BB9F1112311F483E001C084E08815CA
:101A600010F088240AC0881AF3FC07C080E290E0D6
:101A7000B3010E9499178A94C9F7112329F0812F85
:101A800090E0B3010E94991723FE03C00CEA10E016
:101A90000EC000EB10E00BC0E114F10409F080521D
:101AA00090E0B3010E9499170F5F1F4F05C0EF2C04
:101AB000FF24F0E1EF22FF24F8018491882361F7ED
:101AC00014C1F7FE12C0BC0C24FE04C08A8181330D
:101AD00009F4BA941B141CF0BB24B3942DC0F8E095
:101AE000FB1550F538E0B32E27C0F6FC25C0892D34
:101AF00090E08C159D054CF02CEFC2162FEFD2060E
:101B000024F030E8F32A01C09A94992049F0E2E0E9
:101B1000F0E0EC0FFD1FE90DF11D80818033A1F392
:101B2000F7FE0AC0B92CB394892D90E0C816D906E7
:101B300014F0992401C09C18F7FC03C025E030E0A4
:101B400009C01C141D041CF021E030E003C0960104
:101B50002F5F3F4F112311F02F5F3F4F992029F046
:101B6000892D90E00196280F391F882D90E02817C5
:101B7000390714F0882401C0821A4F2C5524C20161
:101B800089709070892B39F008C080E290E0B30131
:101B90000E9499178A948820C1F7112329F0812F78
:101BA00090E0B3010E94991743FE07C008C080E38C
:101BB00090E0B3010E9499178A948820C1F7F7FE3C
:101BC00046C08601D7FE02C000E010E0760108940E
:101BD000E11CF11CE01AF10A41E050E04C0F5D1FDE
:101BE000E40EF51E26014B185108892D90E0AA2419
:101BF000BB24A81AB90A5FEF0F3F150729F48EE23C
:101C000090E0B3010E949917C016D10634F0401637
:101C100051061CF4F701808101C080E3015010409F
:101C20000894E11CF11C0A151B052CF090E0B3018F
:101C30000E949917E0CF0C151D0539F49A8196334F
:101C400018F4953311F424FE81E390E04BC08A81AF
:101C5000813309F00F7E90E0B3010E94991799201B
:101C6000A1F08EE290E0B3010E94991712E0E1E04A
:101C7000F0E0EC0FFD1FE10FF11D1F5F808190E090
:101C8000B3010E9499179A9491F744FC03C085E62A
:101C900090E002C085E490E0B3010E949917D7FC60
:101CA00005C0C114D10441F404FF06C0D094C1940E
:101CB000D108D3948DE201C08BE290E0B3010E9481
:101CC000991780E305C08F5F26EF3FEFC20ED31E4A
:101CD0003AE0C316D104BCF790E0B3010E94991713
:101CE000C601C096B3010E949917CC84DD8452C10D
:101CF000933631F0933799F0933509F059C023C0EA
:101D0000F601808189835E010894A11CB11C22E048
:101D100030E0C20ED31E21E0E22EF12C12C0F601FB
:101D2000A080B18016FD03C06FEF7FEF02C0692D68
:101D300070E022E030E0C20ED31EC5010E948E1773
:101D40007C011F7713C0F601A080B18016FD03C08F
:101D50006FEF7FEF02C0692D70E022E030E0C20E2D
:101D6000D31EC5010E9483177C01106813FF07C0B2
:101D70001BC080E290E0B3010E9499178A94882DDD
:101D800090E0E816F906A8F30FC0F50117FD85915C
:101D900017FF81915F0190E0B3010E9499178110B4
:101DA0008A940894E108F108E114F10471F7F2C093
:101DB000943611F0993689F517FF08C0F601208195
:101DC00031814281538184E090E00AC0F601808134
:101DD00091819C01442737FD4095542F82E090E08B
:101DE000C80ED91E9FE6F92EF12257FF09C0509563
:101DF0004095309521953F4F4F4F5F4F90E8F92A1E
:101E0000CA01B901AE014F5F5F4F2AE030E00E9486
:101E1000E917E82EE889EE1A41C0953721F41F7EB4
:101E20002AE030E01CC0197F9F3661F0903720F423
:101E3000983509F0B2C00FC0903739F0983709F0E3
:101E4000ACC004C028E030E00AC0106114FD14608A
:101E500020E130E004C014FD166020E132E017FFFD
:101E600008C0F601608171818281938144E050E075
:101E700008C0F60180819181BC0180E090E042E0E1
:101E800050E0C40ED51EAE014F5F5F4F0E94E917B0
:101E9000E82E5889E51A8FE7F82EF122F6FE0BC0DE
:101EA0008EEFF822E91438F4F4FE07C0F2FC05C006
:101EB0009FEEF92202C01E2D01C0192DF4FE0DC0A7
:101EC000FE01EE0DF11D8081803319F4E9EEFE2252
:101ED00008C01F5FF2FE05C003C08F2D867809F091
:101EE0001F5F0F2DF3FC14C0F0FE0FC0181510F08B
:101EF0009E2C0BC09E2C980C911A182D06C080E2C7
:101F000090E0B3010E9499171F5F1815C0F304C039
:101F1000181510F4811A01C0882404FF0FC080E353
:101F200090E0B3010E94991702FF1DC001FD03C09C
:101F300088E790E00EC088E590E00BC0802F86789F
:101F400091F001FF02C08BE201C080E2F7FC8DE25C
:101F500090E0B3010E94991706C080E390E0B301BE
:101F60000E9499179A94E914C0F3EA94E1E0F0E032
:101F7000EC0FFD1FEE0DF11D808190E0B3010E947A
:101F80009917EE2091F706C080E290E0B3010E941D
:101F900099178A948820C1F799CCF30166817781DB
:101FA000CB016196E2E10C94BA15E9ECF1E01192F3
:101FB00083E0E13CF807D9F70895843580F5603374
:101FC00070F5262F269526952695677090E0442378
:101FD00099F0E4E52E9FF0011124E80FF91FE75373
:101FE000FE4F81E090E002C0880F991F6A95E2F7EA
:101FF0002081282B20830895E4E52E9FF0011124F1
:10200000E80FF91FE753FE4F81E090E002C0880F10
:10201000991F6A95E2F780952081282320830895EF
:102020002F923F924F925F926F927F928F929F92E8
:10203000AF92BF92CF92DF92EF92FF920F931F93D6
:10204000DF93CF93CDB7DEB72D970FB6F894DEBFF1
:102050000FBECDBFD82EC62E142F022F8417F9F431
:10206000A62EBB24E22EFF240EC08D2D6A2D41E04A
:102070000E94DD0FC01620F40894A11CB11C03C0FF
:102080000894A108B108C01628F4EA14FB040CF463
:10209000FEC0EBCFAE14BF040CF4F9C0E6CF282F7E
:1020A00030E06017F9F4C9015C01E42EFF240EC092
:1020B0008A2D6C2D41E00E94DD0FD11620F408948A
:1020C000A11CB11C03C00894A108B108D11628F4C2
:1020D000EA14FB040CF4DBC0EBCFAE14BF040CF429
:1020E000D6C0E6CF842F90E09A838983C9015C0132
:1020F00069817A81681B790B882777FD8095982FF5
:102100000E9421146F83788789879A87202E332431
:102110004C2C5524B10164197509882777FD8095E9
:10212000982F0E9421143B014C012F81388549854D
:102130005A850E9486136B837C838D839E8320E067
:1021400030E040E050E00E94241587FF0DC0C4013C
:10215000B30190582F81388549855A850E9486138E
:102160006B837C838D839E830F2EF0E0CF2EF0E077
:10217000DF2EF0E0EF2EF0E0FF2EF02D70C0AB86EA
:102180008A2D642D41E00E94DD0FC701B6012B812D
:102190003C814D815E810E940B1331C08B85642D83
:1021A00041E00E94DD0F1D861C86C401B30120E0C2
:1021B00030E040E050E00E942415181624F4E1E0DD
:1021C000F0E0FD87EC8700E010E0C401B30120E0FF
:1021D00030E040E050E00E948213882314F401E0D4
:1021E00010E08C859D85801B910B480E591EC70100
:1021F000B60120E030E040E85FE30E940A136B0183
:102200007C0120E030E040E05FE30E942415882359
:102210009CF0C401B30120E030E040E050E00E94B7
:10222000241518162CF4241435040CF0B7CF04C070
:10223000421453040CF0B2CF6F81788589859A855A
:1022400020E030E040E050E00E942415181624F40D
:102250000894A11CB11C03C00894A108B1086F81A7
:10226000788589859A8520E030E040E050E00E9442
:102270002415181634F4E981FA81EA15FB053CF0BF
:102280007ECF89819A81A816B9060CF078CF2D9659
:102290000FB6F894DEBF0FBECDBFCF91DF911F9177
:1022A0000F91FF90EF90DF90CF90BF90AF909F90F5
:1022B0008F907F906F905F904F903F902F900895F8
:1022C0009F92AF92BF92CF92DF92EF92FF920F93C5
:1022D0001F93CF93DF93982EC62E85E0489FE00191
:1022E0001124C05AD04000E081E0A82EB12C18C0C3
:1022F000612F6C0DA501012E02C0440F551F0A94D9
:10230000E2F74E215F21012E02C0559547950A94B0
:10231000E2F78D2D0E94DD0F1F5F183049F70F5F28
:10232000053061F0FE01E00FF11DEC54FF4F10E0AD
:10233000E491D02ED90CEE2EFF24EFCFDF91CF9178
:102340001F910F91FF90EF90DF90CF90BF90AF90D3
:102350009F900895EF92FF920F931F93CF93DF9377
:10236000F82E062F142F242F352FC901EC0195E0EC
:10237000E92E08C08E9DC00111248F0D602F0E9490
:10238000601121969E01211B822F4881442391F7E1
:10239000DF91CF911F910F91FF90EF900895CF9310
:1023A000DF9380E060E00E944412C9ECD1E081E05C
:1023B00069910E94E21183E0C13CD807C1F7DF9127
:1023C000CF91089595B18295880F807E9F7D982B3F
:1023D00095B95F9827E030E070E08F98CB01022E2E
:1023E00002C0959587950A94E2F780FF02C02E9A65
:1023F00001C02E988F9A215030408FEF2F3F380721
:1024000061F75F9A08951F93182F579A249A259A77
:10241000269A879A2C985F9A2C9A80E061E20E9413
:10242000E211106880E0612F0E94E21180E064E018
:102430000E94E21180E063E10E94E21180E06CE022
:102440000E94E21180E060E20E94E21180E06CE014
:102450000E94E21180E060E40E94E21180E060E806
:102460000E94E2111F910895CF93DF93C0E0D0E066
:1024700081E060E00E94E211219681E0C83FD80728
:10248000B9F7DF91CF9108951F93182F606480E012
:102490000E94E211106880E0612F0E94E2111F91FA
:1024A0000895AF92BF92CF92EF920F931F93FC01CA
:1024B0004083518362837383048315832683378328
:1024C000E08AC18AB48AA38A81E0828B80E090E0AE
:1024D000A0E0B0E080879187A287B3878487958743
:1024E000A687B7871F910F91EF90CF90BF90AF90C5
:1024F00008953F924F925F926F927F928F929F9238
:10250000AF92BF92CF92DF92EF92FF920F931F9301
:10251000CF93DF93EC018A89882309F469C0688925
:1025200070E0882777FD8095982F0E94211420E085
:1025300030E040E05EE30E9428150E946F130E9485
:10254000F313362E882447C0092D10E0B8018827E0
:1025500077FD8095982F0E94211420E030E040E024
:102560005EE30E9428150E945C146B017C01688167
:1025700079818A819B810E94F313A92CA60E6C811C
:102580007D818E819F810E94F313B82CB60EC3010A
:10259000B2010E942114A70196010E940B130E9410
:1025A000EE13EB89FC89E60FF71F408150E00095A0
:1025B00010950770107002C0559547950A95E2F77F
:1025C00041708A2D6B2D0E94DD0F93948889981697
:1025D00008F4BACF83948989881650F4839CC0018B
:1025E000112499242C01662457FC6094762CEECF9C
:1025F000DF91CF911F910F91FF90EF90DF90CF90DF
:10260000BF90AF909F908F907F906F905F904F9012
:102610003F9008955058BB27AA270ED0C4C1B5D10A
:1026200030F0BAD120F031F49F3F11F41EF4AAC16A
:102630000EF4E095E7FB77C1E92FC6D180F3BA1716
:10264000620773078407950718F071F49EF5F5C1CA
:102650000EF4E0950B2EBA2FA02D0B01B9019001BD
:102660000C01CA01A0011124FF27591B99F0593F01
:1026700050F4503E68F11A16F040A22F232F342F49
:102680004427585FF3CF469537952795A795F04097
:102690005395C9F77EF41F16BA0B620B730B840BAC
:1026A000BAF09150A1F0FF0FBB1F661F771F881F64
:1026B000C2F70EC0BA0F621F731F841F48F48795BC
:1026C00077956795B795F7959E3F08F0B3CF9395AB
:1026D000880F08F09927EE0F97958795089596D162
:1026E00080F09F3740F491110EF4A8C160E070E0D3
:1026F00080E89FE3089526F01B16611D711D811D62
:1027000018C132C1ECD008F481E008950CD04BC15F
:1027100043D140F03AD130F021F45F3F19F003C1CA
:1027200051118CC12FC150D198F39923C9F355236E
:10273000B1F3951B550BBB27AA27621773078407B4
:1027400038F09F5F5F4F220F331F441FAA1FA9F36A
:1027500033D00E2E3AF0E0E830D091505040E6955C
:10276000001CCAF729D0FE2F27D0660F771F881FBD
:10277000BB1F261737074807AB07B0E809F0BB0BAC
:10278000802DBF01FF2793585F4F2AF09E3F5105D0
:1027900068F0C9C053C15F3FECF3983EDCF3869507
:1027A00077956795B795F7959F5FC9F7880F911D46
:1027B0009695879597F90895E1E0660F771F881F32
:1027C000BB1F621773078407BA0720F0621B730BE5
:1027D000840BBA0BEE1F88F7E095089504D0689437
:1027E000B1112CC10895F8D088F09F5790F0B92FFF
:1027F0009927B751A0F0D1F0660F771F881F991F56
:102800001AF0BA95C9F712C0B13081F016D1B1E013
:10281000089513C1672F782F8827B85F39F0B93F23
:10282000CCF3869577956795B395D9F73EF4909557
:102830008095709561957F4F8F4F9F4F0895E894D5
:1028400009C097FB3EF490958095709561957F4FF8
:102850008F4F9F4F9923A9F0F92F96E9BB279395A6
:10286000F695879577956795B795F111F8CFFAF4B6
:10287000BB0F11F460FF1BC06F5F7F4F8F4F9F4FE7
:1028800016C0882311F096E911C0772321F09EE845
:10289000872F762F05C0662371F096E8862F70E0AB
:1028A00060E02AF09A95660F771F881FDAF7880F85
:1028B0009695879597F90895A9D080F09F3740F4B1
:1028C00091110EF0BBC060E070E080E89FEB0895CE
:1028D00026F41B16611D711D811D2BC045C0990F6B
:1028E0000008550FAA0BE0E8FEEF16161706E807DA
:1028F000F907C0F012161306E407F50798F0621BFB
:10290000730B840B950B39F40A2661F0232B242BCF
:10291000252B21F408950A2609F4A140A6958FEFEE
:10292000811D811D089597F99F6780E870E060E040
:102930000895882371F4772321F09850872B762F00
:1029400007C0662311F499270DC09051862B70E0C3
:1029500060E02AF09A95660F771F881FDAF7880FD4
:102960009695879597F908959F3F31F0915020F4FF
:10297000879577956795B795880F911D969587955B
:1029800097F908959FEF80EC089500240A94161695
:10299000170618060906089500240A94121613064D
:1029A000140605060895092E0394000C11F48823DB
:1029B00052F0BB0F40F4BF2B11F460FF04C06F5FF7
:1029C0007F4F8F4F9F4F089557FD9058440F551FCD
:1029D00059F05F3F71F04795880F97FB991F61F0A1
:1029E0009F3F79F087950895121613061406551F18
:1029F000F2CF4695F1DF08C0161617061806991F84
:102A0000F1CF86957105610508940895E5DFA0F082
:102A1000BEE7B91788F4BB279F3860F41616B11DBE
:102A2000672F782F8827985FF7CF869577956795DA
:102A3000B11D93959639C8F30895E894BB2766278E
:102A40007727CB0197F908954ADF08F48FEF0895AF
:102A50000BD0A9CF9ADF28F09FDF18F0952309F05B
:102A600062CF90CF1124EACFAFDFA0F3959FD1F3CF
:102A7000950F50E0551F629FF001729FBB27F00D2C
:102A8000B11D639FAA27F00DB11DAA1F649F662781
:102A9000B00DA11D661F829F2227B00DA11D621FD0
:102AA000739FB00DA11D621F839FA00D611D221F8A
:102AB000749F3327A00D611D231F849F600D211D6E
:102AC000822F762F6A2F11249F5750408AF0E1F011
:102AD00088234AF0EE0FFF1FBB1F661F771F881F5A
:102AE00091505040A9F79E3F510570F01CCFA6CFE2
:102AF0005F3FECF3983EDCF3869577956795B79545
:102B0000F795E7959F5FC1F7FE2B880F911D96956E
:102B1000879597F9089597FB092E07260AD077FD28
:102B200004D043D006D000201AF4709561957F4FF1
:102B30000895F6F7909581959F4F08952F923F92B3
:102B40004F925F926F927F928F929F92AF92BF92BD
:102B5000CF92DF92EF92FF920F931F93CF93DF9369
:102B6000CDB7DEB7CA1BDB0B0FB6F894DEBF0FBEC6
:102B7000CDBF09942A88398848885F846E847D8413
:102B80008C849B84AA84B984C884DF80EE80FD8015
:102B90000C811B81AA81B981CE0FD11D0FB6F8948B
:102BA000DEBF0FBECDBFED010895AA1BBB1B51E1D7
:102BB00007C0AA1FBB1FA617B70710F0A61BB70BAD
:102BC000881F991F5A95A9F780959095BC01CD0152
:102BD0000895A0E0B0E0EFEEF5E10C94A615EC014D
:102BE000A880B980CA80DB80A114B104C104D104DB
:102BF00041F484E2A82E89EDB82E8BE5C82E87E03B
:102C0000D82EC601B5012DE133EF41E050E00E941E
:102C1000661827EA31E440E050E00E9447187B0143
:102C20008C01C601B5012DE133EF41E050E00E9477
:102C30006618CA01B9012CEE34EF4FEF5FEF0E9426
:102C400047186E0D7F1D801F911F97FF04C06150B4
:102C5000704080409048688379838A839B839B017E
:102C60003F77C901CDB7DEB7EAE00C94C2150E94E8
:102C7000E915089589E491E00E94E9150895A0E01E
:102C8000B0E08093490190934A01A0934B01B09327
:102C90004C010895A0E0B0E0E0E5F6E10C94A61543
:102CA000EC01A880B980CA80DB80A114B104C10402
:102CB000D10441F484E2A82E89EDB82E8BE5C82E0C
:102CC00087E0D82EC601B5012DE133EF41E050E099
:102CD0000E94661827EA31E440E050E00E9447185D
:102CE0007B018C01C601B5012DE133EF41E050E0DD
:102CF0000E946618CA01B9012CEE34EF4FEF5FEF66
:102D00000E9447186E0D7F1D801F911F97FF04C002
:102D10006150704080409048688379838A839B83A8
:102D20009B01AC015F77B901CA01CDB7DEB7EAE01C
:102D30000C94C2150E944A1608958DE491E00E94F9
:102D40004A16089560934D0170934E0180934F0190
:102D5000909350010895283008F027E03327DA01D6
:102D6000990F311D87FD916000966105710539F459
:102D700032602E5F3D9330E32A95E1F708959F3F3F
:102D800030F080387105610509F03C5F3C5F3D9390
:102D9000913008F08068911DDF93CF931F930F93BC
:102DA000FF92EF92192F987F9695E92F9695969519
:102DB000E90FFF27E251FD4F99273327EE24FF2427
:102DC000A701E70105900894079428F4360FE71E41
:102DD000F81E491F511D660F771F881F991F069403
:102DE000A1F70590079428F4E70EF81E491F561F17
:102DF000C11D770F881F991F661F0694A1F70590C4
:102E0000079428F4F80E491F561FC71FD11D880FBD
:102E1000991F661F771F0694A1F70590079420F469
:102E2000490F561FC71FD81F990F661F771F881F8E
:102E30000694A9F784911095177041F0D695C7951F
:102E400057954795F794E7941A95C1F7E4E9F2E0AE
:102E500068941590159135916591959105907FE253
:102E60007395E118F10A430B560BC90BD009C0F753
:102E7000E10CF11E431F561FC91FD01D7EF4703395
:102E800011F48A95E6CFE894015030F0080F0AF467
:102E90000027021708F4202F2395022F7A3328F0F9
:102EA00079E37D932A95E9F710C07D932A9589F6F9
:102EB000069497956795379517951794E118F10A39
:102EC000430B560BC90BD00998F023957E9173954F
:102ED0007A3308F070E37C932013B8F77E91706129
:102EE0007D9330F0839571E37D9370E32A95E1F74C
:102EF0001124EF90FF900F911F91CF91DF919927AF
:102F000087FD90950895FC01059061507040011077
:102F1000D8F7809590958E0F9F1F0895FC01615002
:102F2000704001900110D8F7809590958E0F9F1FEB
:102F300008950F931F93CF93DF938C01EB018B8147
:102F400081FF1BC082FF0DC02E813F818C819D813E
:102F50002817390764F4E881F9810193F983E8833C
:102F600006C0E885F985802F0995892B31F48E817B
:102F70009F8101969F838E8302C00FEF1FEFC801D0
:102F8000DF91CF911F910F910895AEE0B0E0EBEC8F
:102F9000F7E10C94AC150D891E8986E08C831A83A9
:102FA00009838FEF9FE79E838D839E01275E3F4FAE
:102FB000CE0101966F89788DA9010E944E0C2F8158
:102FC0003885020F131FF80110822E96E4E00C944E
:102FD000C815FA01AA27283051F1203181F1E8946F
:102FE0006F936E7F6E5F7F4F8F4F9F4FAF4FB1E0FC
:102FF0003ED0B4E03CD0670F781F891F9A1FA11DF7
:10300000680F791F8A1F911DA11D6A0F711D811DF7
:10301000911DA11D20D009F468943F912AE0269FBC
:1030200011243019305D3193DEF6CF010895462F1B
:103030004770405D4193B3E00FD0C9F7F6CF462FFC
:103040004F70405D4A3318F0495D31FD4052419365
:1030500002D0A9F7EACFB4E0A69597958795779522
:103060006795BA95C9F700976105710508959B01A9
:10307000AC010A2E06945795479537952795BA9532
:10308000C9F7620F731F841F951FA01D0895629FCB
:10309000D001739FF001829FE00DF11D649FE00D50
:1030A000F11D929FF00D839FF00D749FF00D659FB1
:1030B000F00D9927729FB00DE11DF91F639FB00DB0
:1030C000E11DF91FBD01CF011124089597FB092EC1
:1030D00005260ED057FD04D014D00AD0001C38F4B9
:1030E00050954095309521953F4F4F4F5F4F089534
:1030F000F6F790958095709561957F4F8F4F9F4F14
:103100000895A1E21A2EAA1BBB1BFD010DC0AA1F28
:10311000BB1FEE1FFF1FA217B307E407F50720F040
:10312000A21BB30BE40BF50B661F771F881F991FBB
:103130001A9469F760957095809590959B01AC0104
:0A314000BD01CF010895F894FFCF00
:10314A006E39363637323631004A6F73682041722B
:10315A00726F77736D697468005328257529004C5E
:10316A00282575290047616D65204F7665720048EC
:10317A00656C6C6F204341423230322121210005B7
:10318A00000100FFFFFFFFFFFF0100000001000038
:02319A00000033
:00000001FF
